:020000040800F2
:100000003008002029020008CD37000821360008FA
:10001000C937000821040008B53D000800000000B1
:100020000000000000000000000000001D3A000871
:100030006111000800000000193A0008213A000888
:10004000430200084302000843020008430200087C
:10005000430200084302000843020008430200086C
:10006000430200084302000843020008430200085C
:10007000430200084302000843020008430200084C
:10008000430200084302000843020008430200083C
:100090002504000835040008430200084302000854
:1000A00043020008ED3A000843020008430200083A
:1000B000FD3A00084302000843020008430200081A
:1000C00043020008430200084302000843020008FC
:1000D00043020008430200084302000843020008EC
:1000E00043020008430200084302000843020008DC
:1000F00043020008430200084302000843020008CC
:1001000043020008430200084302000843020008BB
:1001100043020008430200084302000843020008AB
:10012000430200084302000843020008430200089B
:100130004302000800000000000000004302000825
:10014000430200084302000843020008430200087B
:10015000430200084302000843020008430200086B
:10016000430200084302000843020008430200085B
:1001700043020008430200080000000000000000E5
:10018000430200084302000800F002F800F03CF8C7
:100190000AA090E8000C82448344AAF10107DA45E2
:1001A00001D100F031F8AFF2090EBAE80F0013F0F8
:1001B000010F18BFFB1A43F001031847243D00004C
:1001C000443D0000103A24BF78C878C1FAD85207DD
:1001D00024BF30C830C144BF04680C6070470000C1
:1001E0000023002400250026103A28BF78C1FBD840
:1001F000520728BF30C148BF0B6070471FB503F0DE
:1002000055FE1FBD10B510BD00F0D0F81146FFF728
:10021000F5FF03F031FE00F0EEF803B4FFF7F2FF54
:1002200003BC00F0F5F80000094880470948004782
:10023000FEE7FEE7FEE7FEE7FEE7FEE7FEE7FEE796
:10024000FEE7FEE704480549054A064B70470000F3
:10025000D93A000889010008300200203008002047
:10026000300400203004002053EA020C00F06980C2
:100270002DE9F04B4FF00006002B1FBFB3FA83F5BA
:1002800003FA05F424FA05F65E4012BF1643B2FAEB
:1002900082F502FA05F4C5F120051EBF22FA05FC1D
:1002A00044EA0C04203556EA044C4FEA144418BFC3
:1002B000641C4FF000084FF00009904271EB030CF2
:1002C00039D3002919BFB1FA81F701FA07F6B0FA5C
:1002D00080F700FA07F6C7F120071EBF20FA07FCD7
:1002E00046EA0C062037B6FBF4FCA7EB0507103FE7
:1002F00007F01F0BCBF120062CFA06F60CFA0BFBCD
:1003000044BFB3460026202FA4BF5E464FF0000B2B
:100310005BEA060C08BF4FF0010B19EB0B0948EB29
:100320000608ABFB027C06FB02CC0BFB03CCC01B1C
:1003300071EB0C01C1E70B46024641464846BDE859
:10034000F08B13B5084318BF4FF0FF300146AFF3F1
:100350000080BDE81C4070474FF0000200B5134616
:1003600094469646203922BFA0E80C50A0E80C50D5
:10037000B1F12001BFF4F7AF090728BFA0E80C5086
:1003800048BF0CC05DF804EB890028BF40F8042B7F
:1003900008BF704748BF20F8022B11F0804F18BFEC
:1003A00000F8012B7047704770477047754600F0A2
:1003B0002BF8AE4605006946534620F007008546F7
:1003C00018B020B5FFF73EFFBDE820404FF0000613
:1003D0004FF000074FF000084FF0000BAC46ACE8C0
:1003E000C009ACE8C009ACE8C009ACE8C00921F01C
:1003F00007018D46704710B50446AFF300802046D4
:10040000BDE81040FFF709BF00487047100000200A
:1004100001491820ABBEFEE726000200704700002D
:10042000FFE7FEE780B540F27410C2F2000001F071
:1004300063F980BD80B540F27410C2F2000001F093
:100440005BF980BD10B584B003900398B0F8440008
:100450000399B1F86010401A0399A1F84600039877
:10046000B0F94600012805DBFFE70398B0F9460024
:10047000029005E00398B0F9460040420290FFE781
:100480000298B0F5805F1CDDFFE70398B0F94600E5
:1004900001900398B0F94600012803DBFFE7012033
:1004A000009005E00398B0F94600C0170090FFE700
:1004B000019B009803998A8800FB1230A1F846003E
:1004C000FFE70398B0F946200399886C10448864CC
:1004D000039890ED120AB8EEC00A9FED1C1A20EEA8
:1004E000010A0398818801EE101AB8EE411A90EDC6
:1004F000023A90ED032A21EE031A21EE021A80EE51
:10050000010A80ED0E0A039890F86C00C00740B114
:10051000FFE7039800F09CFC0399002081F86C0031
:10052000FFE70399486B8A6BCB6BD1F840C0D1F8D9
:1005300044E08C6C4C66C1F860E0C1F85CC08B652F
:100540004A650865C86C886604B010BD0000B443F5
:1005500080B58AB00990002000900890079006901E
:1005600005900490039002908DF807000590069086
:10057000082007900998007804280CD8FFE74FF46A
:1005800000700390099801786FF0010000EB4100C2
:100590008DF807000BE040F2FF10039009980178F6
:1005A0006FF0090000EB41008DF80700FFE70998A4
:1005B00018309DF8072040F26C11C2F2000111447E
:1005C00000F0D0FDFFE79DF8070040F26C12C2F288
:1005D0000002105C8DF806009DF807105018407856
:1005E00050549DF806009DF8071011444870FFE72D
:1005F00000F0EEF840F26C12C2F2000203A902AB66
:1006000000F0F0FD0AB080BD80B584B000200390FA
:10061000FFE70398002840F0D880FFE70398C0EB7D
:10062000801140F27000C2F2000000EB81004078BF
:10063000C007002800F0AD80FFE70398C0EB8011F1
:1006400040F27000C2F20000019000EB810000F067
:10065000CFFC01980399C1EB811100EB8100C078B8
:1006600001460291042800F292800299DFE801F02D
:100670000316222E3A000398C0EB801140F270005E
:10068000C2F2000000EB8102002111830399C1EB4B
:10069000811100EB8100FFF75BFF92E00398C0EB54
:1006A000801140F27000C2F2000000EB810000F007
:1006B000EDFB6DE00398C0EB801140F27000C2F2D8
:1006C000000000EB810000F0F1F961E00398C0EB5D
:1006D000801140F27000C2F2000000EB810000F0D7
:1006E000B5FC55E00398C0EB801040F27001C2F2F7
:1006F000000101EB8000B0F91800039AC2EB8212EE
:1007000001EB8201B1F91410494288420DDAFFE78A
:100710000398C0EB801140F27000C2F2000000EBC1
:100720008100B0F91400404230E00398C0EB801023
:1007300040F27001C2F2000101EB8000B0F9180034
:10074000039AC2EB821201EB8201B1F914108842C4
:100750000DDDFFE70398C0EB801140F27000C2F29C
:10076000000000EB8100B0F9140000900CE0039849
:10077000C0EB801140F27000C2F2000000EB81007B
:10078000B0F918000090FFE70098FFE700E0FFE7EE
:100790000BE00398C0EB801140F27000C2F2000041
:1007A00000EB810100200883FFE70398C0EB801174
:1007B00040F27000C2F2000000EB8100FFF7C8FEBB
:1007C000FFE703980130039023E704B080BD0000E9
:1007D00040F27410C2F200007047000070B5A0B083
:1007E00040F2FF101E904FF07E511C910020C4F289
:1007F00010201D9041F6FF70ADF86C0041F294128C
:10080000ADF87C204FF40072199217914AF22C0136
:10081000C4F299111891ADF8580042F21072ADF877
:10082000682001218DF83F10002003908DF85400BE
:100830000023C4F2873310930023CCF28733119343
:100840008DF83D008DF83E104FF4FA5313938DF858
:100850003C00ADF8482040F6B832ADF852204FF4D5
:10086000FA72ADF850208DF838108DF83B008DF8F5
:100870003A008DF839000B900C900D90089009907B
:100880000A900790FFE7079800287ED1FFE70798B6
:10089000C0EB801040F27001C2F20001019101EB47
:1008A0008002002002905070079AC2EB821201EB86
:1008B00082029070079AC2EB821201EB82030E9AB9
:1008C000DA66079AC2EB821201EB82030F9ADDF817
:1008D00040C0DDF844E0129C139D149EC3F8846070
:1008E000C3F88050DC67C3F878E0C3F874C01A67B7
:1008F000159AC3F88820079AC2EB821201EB820393
:100900000B9ADDF830C0DDF834E0C3F894E0C3F8AA
:1009100090C0C3F88C20079AC2EB821201EB8203CD
:10092000089ADDF824C0DDF828E0C3F8A0E0C3F899
:100930009CC0C3F89820079AC2EB821201EB820296
:100940001083079AC2EB821201EB8202D061079AF0
:10095000C2EB821201EB82021084079AC2EB821270
:1009600001EB8202D062079AC2EB821201EB820293
:100970009064079AC2EB821201EB8201A1F8600039
:10098000FFE70798013007907DE700200690FFE71A
:10099000069810BBFFE70698411CC0EB801240F29E
:1009A0007000C2F2000000F822100699C1EB81111C
:1009B00000EB81011B981C9A1D9BDDF878C0DDF8C7
:1009C0007CE0C1F814E0C1F810C0CB608A604860D8
:1009D000FFE7069801300690DAE700200590FFE770
:1009E0000598002827D2FFE70598C0EB8012811CEC
:1009F00040F27000C2F2000000EB820282F8FC10AC
:100A00000599C1EB811100EB81011698179A189B8B
:100A1000DDF864C0DDF868E0C1F810E1C1F80CC190
:100A2000C1F80831C1F80421C1F80001FFE70598B9
:100A300001300590D4E700200490FFE7049848BBFC
:100A4000FFE70498C0EB801140F27000C2F2000092
:100A5000009000EB8100A4309FED0F0ADFED0F0A3C
:100A60009FED0F1A002102F0A5FF00980499C1EB39
:100A7000811100EB8100D030B1EE060ADFED090AEA
:100A80009FED091A012102F095FFFFE7049801305C
:100A90000490D3E720B070BD295C8F3D6F12033AFC
:100AA000000000009A99993E0AD7233C80B58AB08D
:100AB0000990099890ED070A099890ED022A90EDA7
:100AC000031A20EE020A20EE010A818801EE101AB4
:100AD000B8EE411A20EE010A9FED891A80EE010A54
:100AE000BDEEC00A80ED0B0A099890ED0B0AB8EE36
:100AF000C00A099880ED290A099890F87100C0078A
:100B0000002854D0FFE7099890ED022A90ED031ACF
:100B100090ED1D0A808803EE100AB8EE433A20EEED
:100B2000030A20EE020A20EE010A9FED751A80EEFC
:100B3000010ABDEEC00A8DED080A099890ED023A4F
:100B400090ED032A90ED1E0A808804EE100AB8EE9C
:100B5000444A20EE040A20EE030A20EE020A80EE48
:100B6000010ABDEEC00A8DED070A0998C06A07990F
:100B7000884203DAFFE7079806900FE00998C06AF9
:100B80000899884203DDFFE70898059003E009987B
:100B9000C06A0590FFE705980690FFE7069800EE0B
:100BA000100AB8EEC00A099880ED290AFFE70998F3
:100BB00090ED120AB8EEC00A099880ED2A0A099849
:100BC000A43002F03BFE099880ED340A0998B0F990
:100BD0003C0000EE100AB8EEC00A099890ED022A17
:100BE00090ED031A20EE020A20EE010A80ED350A8C
:100BF000099890F87200C007002841D0FFE70998D3
:100C000090ED340AD0F88000404201EE100AB8EEB0
:100C1000C11AB4EE410AF1EE10FA0BDAFFE70998B7
:100C2000D0F88000404200EE100AB8EEC00A8DED08
:100C3000040A1FE0099890ED201A90ED340AB8EEEE
:100C4000C11AB4EE410AF1EE10FA08DDFFE7099887
:100C500090ED200AB8EEC00A8DED030A05E0099870
:100C600090ED340A8DED030AFFE79DED030A8DED4B
:100C7000040AFFE79DED040A099880ED340AFFE7B6
:100C80000998D03002F0DAFDB0EE401A0999B1F9B6
:100C9000180000EE100AB8EEC00A30EE010ABDEEF0
:100CA000C00A10EE100A08830998B0F918000999D3
:100CB000B1F914104942884206DAFFE70998B0F901
:100CC00014004042029015E00998B0F91800099903
:100CD000B1F91410884205DDFFE70998B0F9140056
:100CE000019004E00998B0F918000190FFE701981D
:100CF0000290FFE70298099908830AB080BD00BFFF
:100D00000000B443B0B58AB0109CDDF83CE0DDF8DB
:100D100038C0119D0994CDF820E0CDF81CC0069391
:100D2000059204910390059868B9FFE7069850B9B9
:100D3000FFE70398B0F5007F05D9FFE70398B0F50A
:100D4000027F01D9FFE77AE00398A0F500708DF8E3
:100D50000B009DF80B00022801DBFFE76FE09DF818
:100D60000B00C0EB801140F27000C2F2000000EBFB
:100D70008100FC38019011980178407840EA012008
:100D80000199A1F8440011988178C07840EA0120C7
:100D90000199888711980179407940EA01200199E9
:100DA0008886019890ED030A9FED261AB4EE410A59
:100DB000F1EE10FA14D1FFE711988079019981F8CA
:100DC0004C000198B0F9340000EE100AB8EEC00AE9
:100DD0009FED1E1A20EE010A019880ED100A12E024
:100DE0000198B0F9340000EE100AB8EEC00A9FED89
:100DF000161A80EE010AB2EE041A20EE010A0198DA
:100E000080ED100AFFE7019991ED020A91ED031AB6
:100E100020EE011AB1F93C0000EE100AB8EEC00A4B
:100E200080EE010ABDEEC00A10EE100A8887019913
:100E30000020C1F898000198FFF704FBFFE70AB013
:100E4000B0BD00BF2CA0994100401C46E5FF9F3A71
:100E500010B581B0009000990020886400998863E3
:100E60000099486B8A6BCB6BD1F840C0D1F844E055
:100E70008C6C4C66C1F860E0C1F85CC08B654A655B
:100E80000865C86C886601B010BD000080B586B0EA
:100E900005900598B0F9200000EE100AB8EEC00ADF
:100EA000059890ED022A90ED031A20EE020A20EE3A
:100EB000010A80ED340A0598B0F93C0000EE100AF2
:100EC000B8EEC00A059890ED022A90ED031A20EEC4
:100ED000020A20EE010A80ED350A059890F87000AC
:100EE000C007002845D0FFE7059890ED340AB0F917
:100EF0007C00404201EE100AB8EEC11AB4EE410A7D
:100F0000F1EE10FA0BDAFFE70598B0F97C004042E9
:100F100000EE100AB8EEC00A8DED040A23E0059831
:100F200090ED340AB0F97C0001EE100AB8EEC11A57
:100F3000B4EE410AF1EE10FA0ADDFFE70598B0F9C8
:100F40007C0000EE100AB8EEC00A8DED030A05E041
:100F5000059890ED340A8DED030AFFE79DED030A35
:100F60008DED040AFFE79DED040A059880ED340A33
:100F7000FFE70598D03002F061FCB0EE401A059909
:100F8000B1F9180000EE100AB8EEC00A30EE010AFE
:100F9000BDEEC00A10EE100A08830598B0F91800DB
:100FA0000599B1F914104942884206DAFFE705981D
:100FB000B0F914004042029015E00598B0F918000D
:100FC0000599B1F91410884205DDFFE70598B0F9DD
:100FD0001400019004E00598B0F918000190FFE7B3
:100FE00001980290FFE702980599088306B080BD3A
:100FF00080B582B00190019880780199C9788842C3
:1010000021D0FFE7019880780199C87001990020EC
:1010100000900883019908840198806B0199C86148
:101020000198A43002F0E8FC0198D03002F0E4FC12
:101030000098019981F86D00019981F86F0001997C
:1010400081F86E00FFE702B080BD000080B584B07B
:1010500003900398B0F9841000EE101AB8EEC00A9D
:1010600080ED340A0398B0F93C0000EE100AB8EEA7
:10107000C00A039880ED350A0398D03002F0DEFBF9
:10108000B0EE401A0399B1F9180000EE100AB8EE5C
:10109000C00A30EE010ABDEEC00A10EE100A088345
:1010A0000398B0F918000399B1F9861049428842B3
:1010B00006DAFFE70398B0F986004042029015E097
:1010C0000398B0F918000399B1F98610884205DD3C
:1010D000FFE70398B0F98600019004E00398B0F9A7
:1010E00018000190FFE701980290FFE7029803992A
:1010F00008830398B0F94600012805DBFFE7039851
:10110000B0F94600009005E00398B0F9460040426F
:101110000090FFE70098042820DCFFE7039AD2F84C
:101120009000411CC2F89010652816D3FFE7039980
:101130000020C1F89000039A012182F86D100399F4
:1011400048700398A43002F057FC0398D03002F0A6
:1011500053FC0398FFF77CFEFFE7FFE704B080BD78
:101160007047000083B00290019102980088ADF8AA
:101170000200BDF80200019908709DF80300019972
:10118000487003B07047000072B6FFE7FEE700004A
:1011900084B002900191029890F820008DF803002D
:1011A0009DF80300012805D0FFE79DF80300022801
:1011B0000AD1FFE7019A0298016848691043486123
:1011C00000208DF80F0008E00299486A40F4802062
:1011D000486201208DF80F00FFE79DF80F0004B072
:1011E0007047000088B0069005910492039306981A
:1011F00090F820008DF8070006980068806800903D
:101200000598806808B9FFE700E0FFE79DF8070050
:10121000012806D0FFE79DF80700022840F08080F3
:10122000FFE79DF80300400700280CD4FFE79DF876
:1012300003000007002806D4FFE79DF80300C0065E
:10124000002864D5FFE70098C0F30160029002997E
:1012500001208840039908600598806868B9FFE715
:1012600005980168C06840EA415006990968029AE9
:1012700001EB0211C1F880010EE005994A68886807
:10128000C96840EAC200084306990968029A01EB5E
:101290000211C1F88001FFE7059800690699096805
:1012A000029A01EB0211C1F884010598007D012822
:1012B0000CD1FFE706980068029900EB0111D1F804
:1012C000840140F48070C1F88401FFE7049840680D
:1012D00006990968029A01EB0211C1F88C01049881
:1012E000006806990968029A01EB0211C1F88801A9
:1012F00006980068029900EB0111D1F8800140F0D6
:101300000100C1F8800100208DF81F0011E006994E
:10131000486A40F40010486201208DF81F0008E080
:101320000699486A40F48020486201208DF81F0029
:10133000FFE79DF81F0008B07047000086B00490DA
:101340000391049890F820008DF803009DF80300A5
:10135000012806D0FFE79DF80300022840F0B08086
:10136000FFE746F20040C4F2000001900199D1F875
:10137000000240F00100C1F800020199D1F800021A
:1013800020F47C50C1F800020398426A0199D1F818
:10139000000240EA0220C1F800020398406900F010
:1013A0001F01012088400290029A0199D1F81C0285
:1013B0009043C1F81C020398C069F0B9FFE7029A94
:1013C0000199D1F80C029043C1F80C02039A90885D
:1013D000D168526940EA0140019901EBC201C1F8AC
:1013E0004002039A10889168526940EA01400199CD
:1013F00001EBC201C1F84402FFE70398C06901286C
:101400001ED1FFE7029A0199D1F80C021043C1F8EE
:101410000C02039A90881168526940EA01400199D0
:1014200001EBC201C1F84002039A908991685269A8
:1014300040EA0140019901EBC201C1F84402FFE713
:101440000398806940B9FFE7029A0199D1F8040234
:101450009043C1F8040207E0029A0199D1F804020E
:101460001043C1F80402FFE70398006940B9FFE7A1
:10147000029A0199D1F814029043C1F8140207E0CE
:10148000029A0199D1F814021043C1F81402FFE73F
:101490000398006A012808D1FFE7029A0199D1F860
:1014A0001C021043C1F81C02FFE70199D1F80002A9
:1014B00020F00100C1F8000200208DF8170008E0BC
:1014C0000499486A40F48020486201208DF8170092
:1014D000FFE79DF8170006B07047000081B000904C
:1014E00001B0704786B00490039102920193049872
:1014F00090F820008DF803009DF80300012806D025
:10150000FFE79DF80300022840F0E880FFE703981A
:1015100080B9FFE704980068C068800748B9FFE712
:101520000499486A40F40010486201208DF81700C1
:10153000DDE00FE0049800680069800748B9FFE724
:101540000499486A40F40010486201208DF81700A1
:10155000CDE0FFE704980068039900EB0110D0F894
:10156000B00100F00400029988600298806858B9C0
:10157000FFE704980068039900EB0110D0F8B00170
:10158000400D029908600AE004980068039900EB96
:101590000110D0F8B001C00802994860FFE7049834
:1015A0000068039900EB0110D0F8B00100F00200D0
:1015B0000299C86004980068039900EB0110D0F804
:1015C000B40100F00F00082804D3FFE702990820B7
:1015D00008610BE004980068039900EB0110D0F853
:1015E000B40100F00F0002990861FFE70498006859
:1015F000039900EB0110D0F8B40180B2000A0299FF
:10160000886104980068039900EB0110D0F8B401D8
:10161000000C0299486104980068039900EB0110DE
:10162000D0F8B8010199087004980068039900EB9C
:101630000110D0F8B801000A0199487004980068B8
:10164000039900EB0110D0F8B801000C01998870E3
:1016500004980068039900EB0110D0F8B801000E5F
:101660000199C87004980068039900EB0110D0F844
:10167000BC010199087104980068039900EB0110FE
:10168000D0F8BC01000A01994871049800680399D8
:1016900000EB0110D0F8BC01000C0199887104988E
:1016A0000068039900EB0110D0F8BC01000E01990D
:1016B000C871039838B9FFE704980168C86840F01A
:1016C0002000C86006E004980168086940F0200026
:1016D0000861FFE700208DF8170008E00499486AC8
:1016E00040F48020486201208DF81700FFE79DF844
:1016F000170006B07047000080B58AB0099000203E
:101700000890099800684069079009980068406847
:101710000690099800688068059009980068C0687C
:10172000049009980068006903900998006880692E
:1017300002909DF81C00C007002800F09480FFE78D
:101740009DF81400C00758B3FFE70998016801200D
:1017500088609DF814008007002804D5FFE70998E9
:1017600000F096FB1BE09DF814004007002805D50B
:10177000FFE7089840F4006008900FE09DF814001F
:101780000007002805D5FFE7089840F4805008902E
:1017900003E0099800F078FBFFE7FFE7FFE7FFE7CA
:1017A0009DF81500C00760B3FFE7099801684FF482
:1017B000807088609DF815008007002804D5FFE739
:1017C000099800F06DFB1BE09DF81500400700280C
:1017D00005D5FFE7089840F4005008900FE09DF809
:1017E00015000007002805D5FFE7089840F4804061
:1017F000089003E0099800F04FFBFFE7FFE7FFE7E1
:10180000FFE79DF81600C00760B3FFE7099801687D
:101810004FF4803088609DF816008007002804D5BA
:10182000FFE7099800F044FB1BE09DF81600400715
:10183000002805D5FFE7089840F4004008900FE025
:101840009DF816000007002805D5FFE7089840F42A
:101850008030089003E0099800F026FBFFE7FFE7DF
:10186000FFE7FFE7FFE79DF81C000007002810D501
:10187000FFE79DF81000C006002809D5FFE708988B
:1018800040F400700890099801681020C860FFE7D4
:10189000FFE79DF81C00400700280FD5FFE79DF8E3
:1018A00010000007002808D5FFE709980168082004
:1018B000C860099800F066FAFFE7FFE79DF81C0092
:1018C000800700280BD5FFE709980068C0688007EB
:1018D00020B1FFE7099800F059FAFFE7FFE79DF80C
:1018E0001C004006002810D5FFE79DF80C00C0063C
:1018F000002809D5FFE7089840F48060089009980F
:10190000016810200861FFE7FFE79DF81C008006D2
:1019100000280FD5FFE79DF80C000007002808D528
:10192000FFE70998016808200861099800F05AFA51
:10193000FFE7FFE79DF81C00C00600280BD5FFE776
:10194000099800680069800720B1FFE7099800F056
:101950004DFAFFE7FFE79DF81E00800700280FD52E
:10196000FFE79DF81800C006002808D5FFE7099892
:10197000016810204860099800F03CFAFFE7FFE793
:101980009DF81E00C00778B1FFE79DF8180000071A
:10199000002808D5FFE709980168082048600998E1
:1019A00000F08AFAFFE7FFE79DF81D000006002817
:1019B00040F18D80FFE79DF818004007002840F1B6
:1019C0008180FFE79DF81D00C00750B1FFE79DF83B
:1019D0000800C00728B1FFE7089840F00100089010
:1019E000FFE79DF81D00800700280BD5FFE79DF855
:1019F00008008007002805D5FFE7089840F002009E
:101A00000890FFE79DF81D00400700280BD5FFE771
:101A10009DF808004007002805D5FFE7089840F02A
:101A200004000890FFE79DF81D000007002848D536
:101A3000FFE79DF8080010F0700F42D0FFE7029812
:101A400000F0700001460191102814D0FFE70198C2
:101A5000202815D0FFE70198302816D0FFE701981D
:101A6000402817D0FFE70198502818D0FFE70198C9
:101A7000602819D01DE0089840F00800089019E08F
:101A8000089840F01000089014E0089840F02000FA
:101A900008900FE0089840F0400008900AE008988D
:101AA00040F08000089005E0089840F480700890AD
:101AB00000E0FFE709980168886920F070008861FC
:101AC000FFE7FFE70998016804204860FFE70898EE
:101AD00048B1FFE7089A0999486A10434862099893
:101AE000FFF7FCFCFFE70AB080BD000080B584B0C2
:101AF0000290029820B9FFE701208DF80F00E0E086
:101B0000029890F8200020B9FFE7029800F0DEF874
:101B1000FFE702980168086840F00100086000F0E3
:101B2000C3FB0190FFE7029800684068C007A8B9AE
:101B3000FFE700F0B9FB0199401A0B280DD3FFE72E
:101B40000299486A40F4003048620299052081F801
:101B5000200001208DF80F00B3E0E4E7029801684F
:101B6000086820F00200086000F09EFB0190FFE78B
:101B70000298006840688007002815D5FFE700F04C
:101B800093FB0199401A0B280DD3FFE70299486A8D
:101B900040F4003048620299052081F820000120BD
:101BA0008DF80F008DE0E3E70298007E012807D151
:101BB000FFE702980168086840F08000086006E0CE
:101BC00002980168086820F080000860FFE702982A
:101BD000407E012807D1FFE702980168086840F0BD
:101BE0004000086006E002980168086820F04000A4
:101BF0000860FFE70298807E012807D1FFE702987E
:101C00000168086840F02000086006E0029801685A
:101C1000086820F020000860FFE70298C07E0128D5
:101C200007D1FFE702980168086820F010000860FB
:101C300006E002980168086840F010000860FFE7BD
:101C40000298007F012807D1FFE702980168086821
:101C500040F00800086006E002980168086820F07B
:101C600008000860FFE70298407F012807D1FFE7DE
:101C700002980168086840F00400086006E00298D5
:101C80000168086820F004000860FFE7029B1968FB
:101C90005A689868D3F80CC040EA0C00D3F810C01A
:101CA00040EA0C005B691843013A1043C86102998D
:101CB00000204862029A012182F820108DF80F005E
:101CC000FFE79DF80F0004B080BD000080B58CB028
:101CD0000B9000200A9009900890079006900B98AE
:101CE000006846F20041C4F20001884248D1FFE793
:101CF000FFE70020059043F64000C4F202000168AF
:101D000041F000710160006800F0007005900598D6
:101D1000FFE7FFE70020049043F63000C4F2020022
:101D2000016841F001010160006800F001000490C9
:101D30000498FFE74FF4C05006900220079000205F
:101D4000029008900320099009200A900020C4F214
:101D5000020006A900F0B4F8029A142000900521B0
:101D6000019100F06FFB009800F062FB0199029A6C
:101D70001520039000F066FB039800F059FBFFE785
:101D80000CB080BD81B0009001B0704770B58EB0CE
:101D90000D900D98006846F20041C4F2000188429F
:101DA0001ED1FFE70D98002104AA0BABFFF79AFBA9
:101DB000A8B9FFE704980599069A079BDDF820C0AB
:101DC000099C0A9DEE460BAECEF80C60CEF808508A
:101DD000CEF80440CEF800C0FEF794FFFFE7FFE71F
:101DE0000EB070BD81B0009001B0704781B000901E
:101DF00001B0704781B0009001B0704780B584B0E9
:101E00000290029890F8200001282FD1FFE7029954
:101E1000022081F8200002980168086820F0010083
:101E2000086000F041FA0190FFE7029800684068FE
:101E3000C007A8B1FFE700F037FA0199401A0B2854
:101E40000DD3FFE70299486A40F4003048620299D6
:101E5000052081F8200001208DF80F000FE0E4E755
:101E60000299002048628DF80F0008E00299486A44
:101E700040F40020486201208DF80F00FFE79DF834
:101E80000F0004B080BD000081B0009001B0704729
:101E900081B0009001B0704781B0009001B07047F0
:101EA00081B0009001B0704781B0009001B07047E0
:101EB00081B0009001B0704781B0009001B07047D0
:101EC0008EB00D900C9100200A90099008900B9014
:101ED000FFE70B980F2800F2CC81FFE70B99012058
:101EE00088400A900C9800680A990840099009985F
:101EF0000A99884240F0B881FFE70C98406800F0EA
:101F00000300012807D0FFE70C98406800F00300A9
:101F100002282FD1FFE70D98806808900B984100A8
:101F2000032000FA01F10898884308900C98C068D3
:101F30000B99490000FA01F10898084308900898A5
:101F40000D9988600D98406808900B99012000FA5F
:101F500001F10898884308900C984068C0F300107D
:101F60000B9900FA01F108980843089008980D9918
:101F70004860FFE70C98406800F00300032818D081
:101F8000FFE70D98C06808900B984100032000FA05
:101F900001F10898884308900C9880680B994900D3
:101FA00000FA01F108980843089008980D99C86054
:101FB000FFE70C98406800F00300022826D1FFE7F5
:101FC0000D980B996FF0030202EA51010844006A70
:101FD00008900B9800F0070081000F2000FA01F133
:101FE0000898884308900C9800690B9901F0070144
:101FF000890000FA01F108980843089008980D99A3
:102000000B9B02EA530211440862FFE70D98006837
:1020100008900B984100032000FA01F108988843CA
:1020200008900C98406800F003000B99490000FAF2
:1020300001F108980843089008980D9908600C98D9
:1020400080798007002800F00E81FFE7FFE700207D
:10205000079043F64400C4F20200016841F4804155
:102060000160006800F4804007900798FFE70B9834
:1020700020F0030043F60801C4F201014058089023
:102080000B9800F0030081000F2000FA01F108987E
:10209000884308900D980021C4F20201884203D1C0
:1020A000FFE7002006905EE00D9840F20041C4F288
:1020B0000201884203D1FFE70120059050E00D980E
:1020C00040F60001C4F20201884203D1FFE702207A
:1020D000049042E00D9840F60041C4F202018842AB
:1020E00003D1FFE70320039034E00D9841F2000193
:1020F000C4F20201884203D1FFE70420029026E0E7
:102100000D9841F20041C4F20201884203D1FFE779
:102110000520019018E00D9841F60001C4F202017B
:10212000884203D1FFE7062000900AE00D9941F6AE
:102130000042C4F202020820914208BF072000902A
:10214000FFE700980190FFE701980290FFE70298EF
:102150000390FFE703980490FFE704980590FFE7DA
:1021600005980690FFE70698C0B20B9901F00301AD
:10217000890000FA01F108980843089008980B9923
:1021800021F0030143F60802C4F20102885043F62D
:102190000840C4F201000068089009990898884333
:1021A00008900C988079C006002805D5FFE70999AA
:1021B000089808430890FFE7089843F60841C4F2DE
:1021C0000101086043F60C40C4F201000068089069
:1021D00009990898884308900C988079800600280F
:1021E00005D5FFE70999089808430890FFE7089884
:1021F00043F60C41C4F20101086043F60440C4F206
:1022000001000068089009990898884308900C9884
:1022100080798007002805D5FFE7099908980843C9
:102220000890FFE7089843F60441C4F201010860F2
:1022300043F60040C4F2010000680890099908982C
:10224000884308900C988079C00728B1FFE7099966
:10225000089808430890FFE7089843F60041C4F245
:1022600001010860FFE7FFE7FFE70B9801300B90E3
:102270002FE60EB07047000082B00190ADF802105A
:102280008DF801209DF8010028B1FFE7BDF802009C
:102290000199886105E0BDF8020000040199886198
:1022A000FFE702B07047000040F22C20C2F20000AD
:1022B0000068704740F20400C2F20000027840F269
:1022C0002C21C2F200010868104408607047000029
:1022D00080B543F60041C4F20201086840F4007082
:1022E0000860086840F480600860086840F4807006
:1022F0000860032000F0C0F80F2000F005F800F09F
:1023000071F8002080BD000080B58CB00B900020DB
:1023100005900490FFE70020019043F64400C4F2CA
:102320000200016841F001010160006800F0010055
:1023300001900198FFE706A803A900F0D7F900F083
:1023400005FA4000059005984DF68361C4F21B31F3
:10235000A0FB01014FF0FF3000EB9140049040F2F0
:102360009C10C2F200000021C4F20101016040F2A1
:10237000E731C160049941600021016181608161A0
:1023800000F064FE8DF80B009DF80B0028BBFFE702
:1023900040F29C10C2F2000000F0CCFE8DF80B0061
:1023A0009DF80B00C0B9FFE7192000F041F80B9829
:1023B0000F280CD8FFE70B991920002200F042F8F3
:1023C0000B9840F20801C2F20001086003E001200E
:1023D0008DF80B00FFE7FFE7FFE79DF80B000CB05F
:1023E00080BD000082B0FFE70020019043F644006A
:1023F000C4F20200016841F480410160006800F409
:10240000804001900198FFE7FFE70020009043F62D
:102410004000C4F20200016841F080510160006890
:1024200000F0805000900098FFE702B07047000075
:1024300080B582B08DF807009DF9070001F0BCFC63
:1024400002B080BD80B586B08DF81700049103926C
:102450000020029001F0C8FC02909DF91700019045
:1024600002980499039A01F0B3F90146019801F02A
:10247000C3FC06B080BD000080B582B00190019819
:1024800001F0DCFC02B080BD80B584B00290019107
:10249000029820B9FFE701208DF80F0021E1019893
:1024A00043F60041C4F20201096801F007018842C5
:1024B00012D9FFE7019943F60040C4F2020001700F
:1024C000006800F007000199884204D0FFE701206E
:1024D0008DF80F0005E1FFE70298007880070028DB
:1024E0002AD5FFE7029800784007002809D5FFE7C2
:1024F00043F60801C4F20201086840F4E0500860A5
:10250000FFE7029800780007002809D5FFE743F6A7
:102510000801C4F20201086840F460400860FFE767
:1025200043F60801C4F20201086820F0F000029AA4
:10253000926810430860FFE702980078C0070028FF
:102540006ED0FFE702984068012811D1FFE743F6FB
:102550000000C4F20200006800F400310020B0EB7B
:10256000514F04D1FFE701208DF80F00B9E02CE0B6
:1025700002984068022805D0FFE7029840680328C7
:1025800011D1FFE743F60000C4F20200006800F03A
:1025900000710020B0EB516F04D1FFE701208DF8EE
:1025A0000F009EE010E043F60000C4F20200006855
:1025B00000F002010020B0EB510F04D1FFE7012031
:1025C0008DF80F008DE0FFE7FFE743F60801C4F246
:1025D0000201086820F00300029A52681043086064
:1025E000FFF762FE0090FFE743F60800C4F2020026
:1025F000006800F00C0002994968B0EB810F0ED022
:10260000FFE7FFF751FE0099401A41F289318842F5
:1026100004D3FFE703208DF80F0062E0E4E7FFE753
:10262000019843F60041C4F20201096801F0070174
:10263000884212D2FFE7019943F60040C4F202003B
:102640000170006800F007000199884204D0FFE79C
:1026500001208DF80F0044E0FFE702980078400762
:1026600000280CD5FFE743F60801C4F20201086810
:1026700020F4E050029AD26810430860FFE7029805
:102680000078000700280DD5FFE743F60801C4F2E3
:102690000201086820F46040029A126940EAC20010
:1026A0000860FFE700F064F843F60801C4F2020195
:1026B0000968C9B20A0943F6C661C0F60001895C1F
:1026C000C84040F20001C2F20001086040F2080078
:1026D000C2F200000068FFF717FE00208DF80F001F
:1026E000FFE79DF80F0004B080BD000082B00190AC
:1026F000009101990F20086043F60800C4F202001F
:10270000016801F00301019A5160016801F0F001D4
:10271000019A9160016801F4E051019AD16000686A
:1027200000F46040C0080199086143F60040C4F21B
:102730000200006800F007000099086002B07047CE
:1027400040F20000C2F200000068704780B5FFF759
:10275000F7FF43F60801C4F20201096889B24A0B87
:1027600043F6D661C0F60001895CC84080BD000018
:1027700080B586B00020059004900390029043F647
:102780000800C4F20200006800F00C00014601914C
:1027900040B1FFE7019804280AD0FFE70198082814
:1027A0000CD04FE042F20040C0F2F40002904FE043
:1027B00047F64000C0F27D10029049E043F6040065
:1027C000C4F20200016801F03F0105910068400277
:1027D000002813D5FFE743F60400C4F202000068A6
:1027E000C0F3881047F64001C0F27D11A0FB010143
:1027F000059A0023FDF738FD049012E043F604002B
:10280000C4F202000068C0F3881042F20041C0F236
:10281000F401A0FB0101059A0023FDF725FD0490BA
:10282000FFE743F60400C4F20200006800F4403100
:10283000022000EBD130039004980399B0FBF1F033
:10284000029005E042F20040C0F2F4000290FFE77F
:10285000029806B080BD000080B586B00490049850
:1028600020B9FFE701208DF8170050E304980078A5
:10287000C007002800F0A580FFE743F60800C4F277
:102880000200006800F00C00042813D0FFE743F6B4
:102890000800C4F20200006800F00C0008281ED1F5
:1028A000FFE743F60400C4F202000068400200287B
:1028B00015D5FFE743F60000C4F20200006800F4FB
:1028C00000310020B0EB514F08D0FFE7049840687A
:1028D00020B9FFE701208DF8170018E370E0FFE74B
:1028E00004984068B0F5803F09D1FFE743F6000146
:1028F000C4F20201086840F48030086020E00498C7
:102900004068B0F5A02F0DD1FFE743F60001C4F2F7
:102910000201086840F480200860086840F48030B4
:1029200008600CE043F60001C4F20201086820F4DC
:1029300080300860086820F480200860FFE7FFE727
:10294000FFE704984068E8B1FFE7FFF7ADFC0390AC
:10295000FFE743F60000C4F20200006800F4003113
:102960000020B0EB514F0CD1FFE7FFF79DFC03991E
:10297000401A652804D3FFE703208DF81700C6E24C
:10298000E7E71CE0FFF790FC0390FFE743F6000049
:10299000C4F20200006800F400310020B0EB514F97
:1029A0000CD0FFE7FFF780FC0399401A652804D399
:1029B000FFE703208DF81700A9E2E7E7FFE7FFE74D
:1029C000FFE7049800788007002840F19680FFE731
:1029D00043F60800C4F20200006810F00C0F13D098
:1029E000FFE743F60800C4F20200006800F00C00A4
:1029F00008282CD1FFE743F60400C4F20200006867
:102A00004002002823D4FFE743F60000C4F202008E
:102A1000006800F002010020B0EB510F09D0FFE781
:102A20000498C068012804D0FFE701208DF8170042
:102A30006DE243F60001C4F20201086820F0F800DC
:102A4000049A126940EAC2000860FFE754E0049863
:102A5000C06870B3FFE70021C4F24721012008607D
:102A6000FFF722FC0390FFE743F60000C4F20200E8
:102A7000006800F002010020B0EB510F0CD1FFE71D
:102A8000FFF712FC0399401A032804D3FFE7032041
:102A90008DF817003BE2E7E743F60001C4F20201BC
:102AA000086820F0F800049A126940EAC200086041
:102AB00021E00021C4F2472100200860FFF7F4FB69
:102AC0000390FFE743F60000C4F20200006800F044
:102AD00002010020B0EB510F0CD0FFE7FFF7E4FB41
:102AE0000399401A032804D3FFE703208DF8170049
:102AF0000DE2E7E7FFE7FFE7FFE70498007800074C
:102B000000284BD5FFE70498406918B3FFE740F66B
:102B10008061C4F2472101200860FFF7C5FB0390E4
:102B2000FFE743F67400C4F20200006800F00201FF
:102B30000020B0EB510F0CD1FFE7FFF7B5FB039975
:102B4000401A032804D3FFE703208DF81700DEE1C5
:102B5000E7E722E040F68061C4F2472100200860E8
:102B6000FFF7A2FB0390FFE743F67400C4F20200F4
:102B7000006800F002010020B0EB510F0CD0FFE71D
:102B8000FFF792FB0399401A032804D3FFE70320C1
:102B90008DF81700BBE1E7E7FFE7FFE7049800784F
:102BA0004007002840F1CE80FFE700208DF80700A5
:102BB00043F64000C4F202000068C000002815D4AB
:102BC000FFE7FFE70020009043F64000C4F2020058
:102BD000016841F080510160006800F08050009071
:102BE0000098FFE701208DF80700FFE747F200009B
:102BF000C4F200000068C005002822D4FFE747F2B5
:102C00000001C4F20001086840F480700860FFF71A
:102C10004BFB0390FFE747F20000C4F2000000689E
:102C2000C00500280CD4FFE7FFF73EFB0399401ACC
:102C3000032804D3FFE703208DF8170067E1EAE7D4
:102C4000FFE7FFE704988068012809D1FFE743F612
:102C50007001C4F20201086840F0010008601FE042
:102C60000498806805280DD1FFE743F67001C4F28F
:102C70000201086840F004000860086840F00100A4
:102C800008600CE043F67001C4F20201086820F00D
:102C900001000860086820F004000860FFE7FFE713
:102CA000FFE704988068F8B1FFE7FFF7FDFA0390AB
:102CB000FFE743F67000C4F20200006800F0020172
:102CC0000020B0EB510F0ED1FFE7FFF7EDFA0399AB
:102CD000401A41F28931884204D3FFE703208DF87E
:102CE000170014E1E5E71EE0FFF7DEFA0390FFE7C7
:102CF00043F67000C4F20200006800F002010020F8
:102D0000B0EB510F0ED0FFE7FFF7CEFA0399401A50
:102D100041F28931884204D3FFE703208DF8170080
:102D2000F5E0E5E7FFE79DF80700012809D1FFE797
:102D300043F64001C4F20201086820F080500860A8
:102D4000FFE7FFE704988069002800F0DC80FFE7D8
:102D500043F60800C4F20200006800F00C000828E6
:102D600000F08580FFE70498806902285CD1FFE7C6
:102D70006021C4F2472100200860FFF795FA039014
:102D8000FFE743F60000C4F20200006800F00071A3
:102D90000020B0EB516F0CD0FFE7FFF785FA0399E5
:102DA000401A032804D3FFE703208DF81700AEE094
:102DB000E7E70499C869D1F820C04B6A8A6A40EAFB
:102DC0000C0040EA8310D2034FF6FF739A43A2F53A
:102DD00080321043C96A40EA016043F60401C4F23C
:102DE000020108606021C4F2472101200860FFF75A
:102DF0005BFA0390FFE743F60000C4F202000068AC
:102E000000F000710020B0EB516F0CD1FFE7FFF72D
:102E10004BFA0399401A032804D3FFE703208DF8E7
:102E2000170074E0E7E721E06021C4F247210020A9
:102E30000860FFF739FA0390FFE743F60000C4F299
:102E40000200006800F000710020B0EB516F0CD060
:102E5000FFE7FFF729FA0399401A032804D3FFE795
:102E600003208DF8170052E0E7E7FFE74AE00498F7
:102E70008069012804D1FFE701208DF8170046E0A2
:102E800043F60400C4F202000068029004988069CE
:102E9000012831D0FFE7029800F480000499C96945
:102EA000884229D1FFE7029800F03F000499096A9F
:102EB000884221D1FFE7029847F6C0710840049983
:102EC000496AB0EB811F17D1FFE7029800F4403048
:102ED0000499896AC9034FF6FF729143A1F58031C5
:102EE000884209D1FFE7029800F070600499C96A2E
:102EF000B0EB016F04D0FFE701208DF8170006E06A
:102F0000FFE7FFE7FFE700208DF81700FFE79DF8D8
:102F1000170006B080BD000081B0009001B070477E
:102F200081B0009001B0704785B003900291FFE737
:102F3000039890F83C00012804D1FFE702208DF8A7
:102F400013007EE00399012081F83C00FFE7FFE7D2
:102F50000399022081F83D000398006840680190C1
:102F60000398006880680090019820F0700001903C
:102F70000298016801980843019001980399096833
:102F80004860039800680021C4F2010188423CD0E7
:102F9000FFE703980068B0F1804F36D0FFE7039851
:102FA000006840F20041C4F2000188422DD0FFE7E2
:102FB0000398006840F60001C4F20001884224D062
:102FC000FFE70398006840F60041C4F20001884220
:102FD0001BD0FFE70398006840F20041C4F20101F2
:102FE000884212D0FFE70398006844F20001C4F25F
:102FF0000101884209D0FFE70398006841F600010B
:10300000C4F2000188420ED1FFE7009820F0800052
:103010000090029841680098084300900098039936
:1030200009688860FFE70399012081F83D00FFE708
:103030000399002081F83C00FFE700208DF8130081
:10304000FFE79DF8130005B07047000080B582B01F
:103050000090009820B9FFE701208DF807003FE0BD
:10306000009890F83D0040B9FFE70099002081F8F2
:103070003C00009800F038F8FFE70099022081F842
:103080003D00009951F8040B00F040FD009901202B
:1030900081F84600FFE70099012081F83E00009981
:1030A00081F83F00009981F84000009981F84100C3
:1030B000FFE7FFE70099012081F84200009981F8BD
:1030C0004300009981F84400009981F84500FFE72A
:1030D0000099012081F83D0000208DF80700FFE7EE
:1030E0009DF8070002B080BD80B584B003900398BE
:1030F0000068B0F1804F1BD1FFE7FFE7002002908E
:1031000043F64000C4F20200016841F00101016091
:10311000006800F0010002900298FFE71C20019077
:1031200005210022FFF78EF90198FFF781F9FFE7EB
:1031300004B080BD83B00190019890F83D00012853
:1031400004D0FFE701208DF80B006AE0019902200E
:1031500081F83D0001980168C86840F00100C8602E
:10316000019800680021C4F2010188423CD0FFE7C9
:1031700001980068B0F1804F36D0FFE701980068F1
:1031800040F20041C4F2000188422DD0FFE70198CF
:10319000006840F60001C4F20001884224D0FFE735
:1031A0000198006840F60041C4F2000188421BD03B
:1031B000FFE70198006840F20041C4F20101884233
:1031C00012D0FFE70198006844F20001C4F2010147
:1031D000884209D0FFE70198006841F60001C4F277
:1031E0000001884212D1FFE701980068806800F072
:1031F000070000900098062807D0FFE701980168B3
:10320000086840F001000860FFE706E001980168E7
:10321000086840F001000860FFE700208DF80B000F
:10322000FFE79DF80B0003B07047000080B586B043
:103230000490039100208DF80B00FFE7049890F8AC
:103240003C00012804D1FFE702208DF81700ABE015
:103250000499012081F83C00FFE7FFE70499022070
:1032600081F83D000498006880680190019820F082
:1032700077000190019820F47F4001900198049913
:1032800009688860039800680090002872D0FFE702
:10329000009810286ED0FFE7009820286AD0FFE73A
:1032A0000098302866D0FFE70098402855D0FFE707
:1032B0000098502837D0FFE70098602840D0FFE7FB
:1032C000009870280BD0FFE70098B0F5805F05D01C
:1032D000FFE70098B0F5005F16D052E055E0049883
:1032E0000068039B5A689968DB6800F0E1FC049869
:1032F000006880680190019840F077000190019883
:1033000004990968886040E004980068039B5A6843
:103310009968DB6800F0CCFC04980168886840F488
:103320008040886031E004980068039A5168D26850
:1033300000F0EEFC04980068502100F0D3FC24E07B
:1033400004980068039A5168D26800F009FD049857
:103350000068602100F0C6FC17E004980068039A3A
:103360005168D26800F0D4FC04980068402100F055
:10337000B9FC0AE0049800680399096800F0B2FCFF
:1033800003E001208DF80B00FFE70499012081F88C
:103390003D00FFE70499002081F83C00FFE79DF81D
:1033A0000B008DF81700FFE79DF8170006B080BDF1
:1033B00081B0009001B0704780B584B0039003984D
:1033C0000068C068029003980068006901909DF849
:1033D00004008007002824D5FFE79DF80800800737
:1033E00000281DD5FFE7039801686FF0020008610F
:1033F000039901200877039800688069800720B14D
:10340000FFE70398FFF7D4FF06E0039800F0E2F827
:10341000039800F0E3F8FFE7039900200877FFE73F
:10342000FFE79DF804004007002825D5FFE79DF839
:103430000800400700281ED5FFE7039801686FF0D9
:1034400004000861039902200877039800688069E6
:1034500010F4407F04D0FFE70398FFF7A9FF06E0D0
:10346000039800F0B7F8039800F0B8F8FFE7039965
:1034700000200877FFE7FFE79DF804000007002819
:1034800024D5FFE79DF80800000700281DD5FFE7B9
:10349000039801686FF00800086103990420087719
:1034A00003980068C069800720B1FFE70398FFF721
:1034B0007FFF06E0039800F08DF8039800F08EF887
:1034C000FFE7039900200877FFE7FFE79DF8040076
:1034D000C006002825D5FFE79DF80800C006002893
:1034E0001ED5FFE7039801686FF01000086103998B
:1034F0000820087703980068C06910F4407F04D062
:10350000FFE70398FFF754FF06E0039800F062F826
:10351000039800F063F8FFE7039900200877FFE7BE
:10352000FFE79DF80400C00778B1FFE79DF80800A9
:10353000C00748B1FFE7039801686FF00100086118
:10354000039800F04FF8FFE7FFE79DF8040000063E
:10355000002810D5FFE79DF808000006002809D5CF
:10356000FFE7039801686FF0800008610398FFF798
:10357000D3FCFFE7FFE79DF804004006002810D5C4
:10358000FFE79DF808004006002809D5FFE70398EB
:1035900001686FF040000861039800F03DF8FFE714
:1035A000FFE79DF804008006002810D5FFE79DF88E
:1035B00008008006002809D5FFE7039801686FF02E
:1035C000200008610398FFF7ABFCFFE7FFE704B0BA
:1035D00080BD000081B0009001B0704781B00090C4
:1035E00001B0704780B582B0019001980068002159
:1035F000C4F20101884203D1FFE7FEF75BFEFFE75B
:1036000001980068B0F1804F03D1FFE7FCF7FCFFA1
:10361000FFE702B080BD000081B0009001B07047AC
:10362000FFE7FEE780B58CB040F27410C2F20000F4
:10363000019046F20041C4F20001016003214160A3
:1036400000218160C1604FF4002202614FF44012FA
:1036500042610176012242768276C2760177417715
:10366000FEF744FA18B1FFE7FDF78EFDFFE702A869
:1036700000902821FCF770FE00994FF480400290E2
:10368000202003904FF47E4004904FF6E070C0F28B
:1036900001000590012009900022089206920792ED
:1036A0000A9040F27410C2F20000FDF747FE18B114
:1036B000FFE7FDF769FDFFE740F27410C2F200007A
:1036C000FEF79CFB18B1FFE7FDF75EFDFFE740F258
:1036D0007410C2F200000221FDF75AFD18B1FFE795
:1036E000FDF752FDFFE70CB080BD000080B586B04D
:1036F000002005900490039002900190FFE70020C5
:10370000009043F63000C4F20200016841F001016C
:103710000160006800F0010000900098FFE74FF49E
:103720008070019000200290022003900020C4F2DB
:10373000020001A9FEF7C4FB06B080BD80B588B0C9
:103740000021019107910691059104910391029145
:1037500040F2E410C2F200004FF0804202605322B7
:103760004260816040F2E732C26001618161FFF72F
:103770006DFC18B1FFE7FDF707FDFFE74FF4805040
:10378000049040F2E410C2F2000004A9FFF74EFDDD
:1037900018B1FFE7FDF7F8FCFFE700200290039067
:1037A00040F2E410C2F2000002A9FFF7BDFB18B11D
:1037B000FFE7FDF7E9FCFFE740F2E410C2F200008A
:1037C000FFF7B8FC08B080BDFFE7FEE7FFE7FEE7C4
:1037D00088B0079006910592079800F007000490C2
:1037E0000498C0F10700052803D3FFE704200190E7
:1037F00004E00498C0F107000190FFE701980390EE
:1038000004980430062803D8FFE70020009003E066
:10381000049803380090FFE70098029006980399F7
:10382000012202FA01F101390840029B98400599F2
:103830009A40013A1140084308B0704784B00390A1
:10384000039890ED000A90ED011A30EE410A80EDE8
:10385000050A039890F828000146029168B3FFE733
:103860000298012840F09E80FFE7039890ED021A2D
:1038700090ED034A90ED040A90ED052A90ED063A8A
:1038800032EE435A24EE024A21EE051A31EE041AB2
:1038900033EE033A32EE432A90ED073A32EE032A32
:1038A00020EE020A30EE010A80ED090A03998869C8
:1038B000C86103994869886175E0039890ED050A2D
:1038C00090ED071AB6EE002A21EE021A20EE020A47
:1038D00030EE010A80ED070A039890ED070AB5EE75
:1038E000400AF1EE10FA06DDFFE7039890ED070AB3
:1038F0008DED010A07E0039890ED070AB1EE400A4A
:103900008DED010AFFE79DED010A9FED291AB4EE46
:10391000410AF1EE10FA26DDFFE7039890ED070A61
:10392000B5EE400AF1EE10FA03DDFFE7012000904A
:103930000CE0039890ED070A0020B5EE400AF1EE86
:1039400010FAB8BF4FF0FF300090FFE7009800EE8C
:10395000100AB8EEC00A9FED161A20EE010A03986D
:1039600080ED070AFFE7039890ED021A90ED033A05
:1039700090ED040A90ED052A90ED074A23EE043AF3
:1039800021EE021A31EE031A90ED063A32EE432A86
:1039900020EE020A30EE010A80ED090A0399486917
:1039A000886100E0FFE7039890ED090A04B07047D2
:1039B0000000C84280B586B002AA00920246009874
:1039C000059280ED020AC0ED010A80ED001A8DF823
:1039D000071004980599886003980599C8600298B3
:1039E000059908619DF80700059981F82800059858
:1039F00000F002F806B080BD81B000900099002070
:103A0000C86100998861009948610099086200992D
:103A1000486201B070470000704700007047000026
:103A20007047000080B594B008A83021FCF794FCE2
:103A3000002007900690059004900390FFE7002077
:103A4000029043F64000C4F20200016841F0805148
:103A50000160006800F0805002900298FFE7FFE7E5
:103A60000020019047F20000C4F20000016841F418
:103A700080410160006800F4804001900198FFE7F8
:103A80000220089001210B9110210C910E90002230
:103A90000F921091A821119112900420139008A860
:103AA000FEF7DAFE18B1FFE7FDF76EFBFFE70F2028
:103AB000039002210491002005904FF4805006905D
:103AC000079003A8FEF7E0FC18B1FFE7FDF75CFBE9
:103AD000FFE714B080BD00004EF68851CEF2000121
:103AE000086840F4700008607047000080B540F23C
:103AF0009C10C2F20000FFF75FFC80BD80B540F271
:103B0000E410C2F20000FFF757FC80BD83B00290C2
:103B1000019102980068009002980021C4F201010E
:103B2000884225D0FFE70298B0F1804F20D0FFE710
:103B3000029840F20041C4F20001884218D0FFE729
:103B4000029840F60001C4F20001884210D0FFE75D
:103B5000029840F60041C4F20001884208D0FFE715
:103B6000029840F20041C4F2010188420AD1FFE705
:103B7000009820F070000090019841680098084378
:103B80000090FFE702980021C4F20101884255D05D
:103B9000FFE70298B0F1804F50D0FFE7029840F263
:103BA0000041C4F20001884248D0FFE7029840F685
:103BB0000001C4F20001884240D0FFE7029840F6BD
:103BC0000041C4F20001884238D0FFE7029840F279
:103BD0000041C4F20101884230D0FFE7029844F26C
:103BE0000001C4F20101884228D0FFE7029844F2A4
:103BF0000041C4F20101884220D0FFE7029844F658
:103C00000001C4F20101884218D0FFE7029841F692
:103C10000001C4F20001884210D0FFE7029841F68B
:103C20000041C4F20001884208D0FFE7029842F246
:103C30000001C4F2000188420AD1FFE7009820F495
:103C4000407000900198C168009808430090FFE719
:103C5000009820F08000019949690843009001987C
:103C600080680299C8620198006802998862029887
:103C70000021C4F20101884208D0FFE7029840F217
:103C80000041C4F20101884205D1FFE701980069B3
:103C900002990863FFE70299086840F00400086091
:103CA00002990120486100980299086003B07047AA
:103CB00085B004900391029201930498806800906B
:103CC000009820F47F40009003980299019A41EAFD
:103CD00002210143009808430090009804998860ED
:103CE00005B0704783B002900191029880680090FF
:103CF000009820F07000009001980099084340F06F
:103D00000700009000980299886003B07047000097
:103D100085B00490039102920498006A009004997F
:103D2000086A20F0010008620498806901900198F7
:103D300020F0F00001900299019840EA01100190F2
:103D4000009820F00A000090039900980843009022
:103D500001980499886100980499086205B0704739
:103D600085B00490039102920498006A009004992F
:103D7000086A20F010000862049880690190019898
:103D800020F4704001900299019840EA01300190BE
:103D9000009820F0A00000900399009840EA0110DC
:103DA000009001980499886100980499086205B010
:103DB00070470000FFE7FEE781B08DF803009DF932
:103DC000030000280ED4FFE79DF9031001F01F0245
:103DD000012090404A094EF20011CEF2000141F854
:103DE0002200FFE701B070474EF60C50CEF2000003
:103DF0000068C0F30220704782B08DF80700009180
:103E00009DF9070000280AD4FFE7009800019DF9FA
:103E100007104EF20042CEF2000288540BE00098E8
:103E200000019DF8071001F00F014EF61452CEF27A
:103E300000028854FFE702B07047000083B0029090
:103E4000029800F0070000904EF60C51CEF20001EF
:103E50000868019001984FF6FF0210400190019808
:103E6000009A40EA02200022C0F2FA521043019068
:103E70000198086003B0704780B582B000200190BF
:103E8000FEF726FAFFF7CEFDFFF730FCFFF7CAFB7F
:103E9000FFF754FCFCF7A2FC0020C4F202004FF430
:103EA00080710122FEF7E8F9FFE7FEE7F1EE100A64
:103EB0004FF6FF71C0F2C03120EA010040F04070BF
:103EC000E1EE100A7047000000000000000001024F
:103ED00003040607080900000000010203040000B3
:103EE000003F00080000002010000000C40100088E
:103EF000103F00081000002020080000E00100082A
:103F00000024F40001000000100000000000000088
:040000050800018965
:00000001FF
